:100000001DC02AC029C028C015C126C094C124C063
:1000100023C022C021C020C01FC01EC0AFC11CC051
:100020001BC01AC019C03F065B4F666D7D077F6F0E
:1000300000010203040506070304050611241FBE80
:10004000CFEDCDBF20E0A0E6B0E001C01D92A83802
:10005000B207E1F723D2E1C2D3CF80918600181610
:1000600024F08091870018168CF4809186008150CE
:10007000809386008091860087FF08C0809187006A
:100080008150809387008BE3809386000895809150
:1000900087008C338CF4809186008F5F809386007C
:1000A000809186008C336CF01092860080918700DE
:1000B0008F5F8093870008958CE380938700109270
:1000C000860008958EB5887F8EBD1DBC1CBC08952A
:1000D000CF93DF93EC01F6DFDBBDCABD8EB5846044
:1000E0008EBD89B7806489BF8EB588608EBDDF9173
:1000F000CF91089520916800222379F090916900B2
:10010000E92FF0E0E559FF4F8081215020936800EE
:100110009F5F977090936900089580E00895209103
:100120006800283070F490916A00E92FF0E0E559FA
:10013000FF4F80832F5F209368009F5F977090939D
:100140006A000895EF92FF920F931F93CF93DF936E
:100150000FEF060F10E098012D583F4F7901F9017C
:10016000C081000F111F8823E9F0F801EA58FF4F02
:1001700020813181253FF1E03F0728F0309367006F
:10018000209366002DC02F5F3F4F30936700209370
:1001900066002B30310520F1C0FD13C0C16040FD69
:1001A00031C00FC0C0FF04C0C1FD31C042FD33C02B
:1001B000D0E01092670010926600CC7FD1110CC085
:1001C0000FC0253F314061F4D0E0C1FDF7CFCB7FB8
:1001D000C26041FFF3CFD2E0862FA1DF8D2F9FDFDA
:1001E000F801EA58FF4F8091660090916700918373
:1001F0008083F701C083DF91CF911F910F91FF9012
:10020000EF900895D1E0253F3140F9F2E5CF43FF6B
:10021000CFCFD4E0CECFD3E0CCCF9398949895981D
:100220009698C09AC19AC29AC39AC49AC59AC69A15
:10023000C79A08951F920F920FB60F9211242F9311
:100240003F934F935F936F937F938F939F93AF935E
:10025000BF93CF93EF93FF9380918200882311F196
:10026000C0918100CE3120F412DFCF5FC0938100B6
:10027000C0918100CE3148F080918600825F8093EA
:10028000860005DFCF5FC0938100C0918100CC3331
:1002900048F080918600855C80938600F8DECF5F11
:1002A000C0938100809180008823A9F0C0918100D3
:1002B000CE3120F4D2DECF5FC0938100C0918100A7
:1002C000CE3148F0809186008E5080938600C5DE46
:1002D000CF5FC0938100809183008111BEDE809149
:1002E0008600811105C080918700811101C0EADE7E
:1002F00030918600809187002AE0622F82D180931E
:100300007C0090937D00832F7CD180937E0090931E
:100310007F00FF91EF91CF91BF91AF919F918F910E
:100320007F916F915F914F913F912F910F900FBEF1
:100330000F901F9018951F920F920FB60F921124D5
:100340002F933F934F935F936F937F938F939F93DD
:10035000AF93BF93EF93FF9360DFFF91EF91BF9156
:10036000AF919F918F917F916F915F914F913F914D
:100370002F910F900FBE0F901F9018951F920F9204
:100380000FB60F9211242F933F934F935F936F9368
:100390007F938F939F93AF93BF93CF93DF93EF930D
:1003A000FF93CCE7D0E0A1E6B0E080E0E991E11175
:1003B00004C0811102C01C9206C0F0E0EA5DFF4F4C
:1003C000E491EC9381E0119690E0A536B90771F7BE
:1003D00080916500843008F04CC0E0916500A091E8
:1003E0006500E43030F0809165008F5F8093650098
:1003F00042C0B0E0AF59BF4F4C91F0E0E85CFF4F16
:10040000E49122B381E090E001C0880FEA95EAF719
:10041000822B82BBE0E3F0E020E030E050E061E0DE
:1004200070E0CA01022E02C0959587950A94E2F702
:1004300080FF0DC08491A8B3EB0102C0CC0FDD1F7B
:100440008A95E2F7CE01809590958A230AC084911F
:10045000A8B3EB0102C0CC0FDD1F8A95E2F7CE01F5
:100460008A2B88BB2F5F3F4F319628303105C9F664
:10047000BACF10926500FF91EF91DF91CF91BF91BC
:10048000AF919F918F917F916F915F914F913F912C
:100490002F910F900FBE0F901F901895109287000C
:1004A000109286008FEF87BB88E781BBB6DE83B7EB
:1004B000887F83BF83B78A6083BF80B78A6080BF2D
:1004C00083B7826083BF89B7866089BF85E08CBFB0
:1004D0007894109277001092760010927300109228
:1004E0007900109278001092740010927B001092A4
:1004F0007A0010927500EBE6F0E083E790E011924D
:100500008E179F07E1F710926A001092690010920F
:1005100068008898909A8998919A8A98929AD1E0DE
:100520001AE08FE99FE00197F1F700C0000080B367
:10053000817041E061E08D2705DE80B38695817092
:100540004BE062E08D27FEDD80B382FB882780F9D7
:100550004BE063E08D27F6DDCDDDC82F809385006D
:100560008823F1F1C7DD809384009091830091117D
:1005700032C0C13031F481E19AE7AADDC093830033
:100580002FC0C23091F4823031F0843051F081308C
:1005900039F57DDD25C089E698E19ADDD0938200AA
:1005A0001FC090DD1092820013C0C330C9F48230A6
:1005B00031F0843051F0813099F44FDD11C089E67B
:1005C00098E186DDD09380000BC07CDD1092800026
:1005D0001092810005C0C13019F474DD10928300BF
:1005E0002091860080918700612F0BD080937C0042
:1005F00090937D00822F05D080937E0090937F00A2
:1006000090CF991B79E004C0991F961708F0961BAC
:0E061000881F7A95C9F780950895F894FFCF5A
:00000001FF
